:030000000209AE44
:1009AE00787FE4F6D8FD7508007509007581737EB1
:0609BE00008ED90209FFC2
:1008E8004C54582F564D5C464731323341343536D7
:1008F80042373839432A302344000775077507758E
:100908000775083D083D083D083D091D091D091DDD
:10091800091D0A110A110A110A110CEF0E4B0FCD0D
:1009280011790CEF0E4B0FCD11790CEF0E4B0FCD4B
:1009380011790CEF0E4B0FCD11790B021302230224
:1009480022020A0212022002100208020B821382FB
:100958002382438209821182218241820A82128281
:100968002282428208821082208240820000040291
:10097800082010012804021020080164040208203D
:10098800100150040208201001640402082010011C
:100998007D0402082010017D0402082010017D005A
:0609A80000000000000049
:10004E00E4F5D9C2AF756A01120CB0D2AFE4F53D3A
:10005E00120C628F69AF3D120D2A75A4AE75A559AB
:10006E00C290536907AF69EF75F007A4247CF5823F
:10007E00E43409F583E493F52CD297D285D291D24C
:10008E0090D295753A0153DBFEE4752A01F529F5F8
:10009E0028F527F542F541F540F53FF53EF545F5D6
:1000AE0030F531F52FF51AF532F533F534F535F522
:1000BE002DF52EF544F536F537F538F52FF5467551
:1000CE00260175197EF518A291B333F51BE4F51CC4
:1000DE00F51DA295B333F561E52670FCE569B4070D
:1000EE0005C290020575D290020562E56A700302A0
:1000FE00004EE4F562A29133F564E51B6564602F52
:10010E0085641BE564601F120CFDE4F532F533F5D2
:10011E0034F535E56964076002800330900343DCF3
:10012E004053DBFE80097D017F40120D03D285E432
:10013E00F56412000EEF6006756240753696E53670
:10014E007009E519647E6003436240E53345326011
:10015E0006753706753872E52F6013E4F52FE569DD
:10016E0064076002800330900343DC40D285A29581
:10017E00E433F56065616029856061E560601012A9
:10018E000CFFE56AB40205E4F56A8003756A02E5C0
:10019E0069B4070DE560F45401F560FD7F20120D82
:1001AE0003E56220E6030200F9E51D702CE53670CA
:1001BE0028F51AE519647E601DE5334532700EE5AB
:1001CE006964076002800330900343DC40E4F51C51
:1001DE00E5194480F55D75197E120AD2120A448B18
:1001EE00658A668967900001120822F56412080973
:1001FE00FF30E117E51A7005751A018011AB65AA7B
:10020E0066A967EF54FD12084F8003E4F51AE56402
:10021E00647E604DE564B43B0885645D75197E802F
:10022E0043753696E5646011E5196564600B856467
:10023E001985645D751828802BE5186027D518245C
:10024E00E519642F6005E519B45C11AB65AA66A9C2
:10025E0067120809440212084F85195D751802804D
:10026E0003E4F51AE56964077036E55DB4C70CE57D
:10027E00636008C29053DCBFE4F563AB65AA66A960
:10028E006712080930E113E55DB4470EA290E4331E
:10029E00F563209005D29043DC40209003E4F55D99
:1002AE00E55D30E709E4F532F533F534F535E55D16
:1002BE00C394304007E55DD394394019E55DC3948E
:1002CE00414007E55DD39444400BE55D642A60052B
:1002DE00E55DB423057560018003E4F560AB65AAA6
:1002EE0066A967120809FF5402F55EEF30E00FE5CC
:1002FE0060700B755F01F532F533F534F535E56059
:10030E0070030203E1EF30E206753706753872EFBF
:10031E0030E0077D017F40120D03E53D30E64DE5EF
:10032E005E70030200F953DCBFC285AB65AA66A9F5
:10033E0067900002120822FF3395E0FEEF25E0FFE2
:10034E00EE33FE74022FF58274093EF583E493F5C5
:10035E0032740193F53374222FF58274093EF583BE
:10036E00E493F534740193F5350200F9E55DC39419
:10037E00304041E55DD39439503AE5696407700326
:10038E000200F953DCBFE51C60030200F9751C0185
:10039E00E55D24D0F55EE56875F00AA4F568E55EC6
:1003AE002568F568E568D3946350030200F9855E0D
:1003BE00680200F9E4F568E55DB42A0675ECF8E428
:1003CE00F5EBE55D642360030200F975EC01F5EBD6
:1003DE000200F9E569B40709E55D644D6003E4F5D3
:1003EE005DE55D1208C204102F045C3B04AD4C05A4
:1003FE00344D04CC54050A5604EB58042F5C00000F
:10040E00057BAB65AA66A96712080920E103020005
:10041E00F9AF69EF75F007A42476F582E43409800C
:10042E001DAB65AA66A96712080920E1030200F94F
:10043E00AF69EF75F007A42479F582E43409F583EA
:10044E00E493FFAD68120B38E4F5680200F9AB6572
:10045E00AA66A96712080930E02530E20DC285E4CC
:10046E00F532F533F534F5358008E5384537700249
:10047E00D2857D017F40120D03751D010200F91218
:10048E000CFDE4F532F533F534F535E569640760B6
:10049E0002800330900343DC40E4F51D0200F9AB0B
:1004AE0065AA66A96712080920E1030200F9AF697F
:1004BE00EF75F007A42478F582E43409805BAB6510
:1004CE00AA66A96712080920E1030200F9AF69EFD5
:1004DE0075F007A4247AF582E43409803CAB65AA52
:1004EE0066A96712080920E1030200F9AF69EF75EA
:1004FE00F007A4247BF582E43409801DAB65AA665F
:10050E00A96712080920E1030200F9AF69EF75F03F
:10051E0007A42477F582E43409F583E493FF7D0183
:10052E00120B380200F9AB65AA66A96712080920FA
:10053E00E1030200F9E5334532601FD285E4F5325E
:10054E00F533F534F535E5696407600280062090D1
:10055E00030200F943DC400200F9C28575320A75C8
:10056E0033B3E4F534F53553DCBF0200F9055D0213
:02057E0000F982
:020B38008F6BC1
:100B3A00ED7005756D0180208D6D7537007538640F
:100B4A0012000E8F6CE56C6009120AD275370075B7
:100B5A003850E538453770E8E4F56CE56CC3956DB7
:100B6A00502F53DCBF7D01AF6B120D03852C46E578
:100B7A004670FC43DC40E4FDAF6B120D03852C4646
:100B8A00E54670FC12000EEF6003856D6C056C8003
:010B9A00CA90
:010B9B002237
:060CFD00C285E4FD7F400A
:100D0300ED6005EF423D8004EFF4523DAF3D120D1F
:020D13002A2292
:100D2A00752B808F39D28C208CFDD296D28C208C58
:040D3A00FDC296223E
:100C6200E4D286D290D2857F32120003A286E43388
:100C7200540125E025E0FFA290E433540125E0422F
:0E0C820007A285E43354014207EFF45407FF44
:010C90002241
:070003008F44E54470FC226C
:09000E00E4FFE525655960010FCE
:0100170022C6
:100AD20074FFF571F570F56FF56EE5256559604D9A
:100AE200AF25EF25E025E0244DF81208AAE4FCAB7F
:100AF20007AA06A905C004C005C006C007AF257431
:100B02005A2FF8E6FFE4FDFE7818120897D003D0BA
:100B120002D001D0001208618F718E708D6F8C6EC1
:100B22000525AF25EFD394024003E4F525AF71AE5E
:050B320070AD6FAC6E18
:010B3700229B
:080A44008F6E8E6D8D6C8C6BC2
:100A4C00E4F9751F7EEF540FF51E7804120884EF3D
:100A5C0064024E7005751F3B8065EFF47002EEF476
:100A6C00605DE4FDED25E02442F582E43409F58374
:100A7C00740193B5070EE493B50609ED9008E8935D
:100A8C00F51FA905E51FB47E160DED25E02442F5F2
:100A9C0082E43409F5837401937002E49370C5E524
:100AAC001FB47E16E54AFFE5494410FEE548FDE516
:100ABC0047FC8F4A8E498D488C47E924F7F5207BFB
:050ACC00007A00791E14
:010AD1002202
:03004B000205802B
:0D058000C0E0C0F0C083C082C0D075D010B4
:10058D0020D8030206FEC2D8AFF98F82758300AF63
:10059D00FAEFFEEEF583C3E5829531E58395305094
:1005AD0016C374FF9531CF74FF9530CF2582F57347
:1005BD00EF3583F572800DC3E5829531F573E583D3
:1005CD009530F572AE72AF73E4FCFD7B437A05F99D
:1005DD00F8D312086E40030206FE85833085823102
:1005ED00E53C453B701D752A01F529F528F527F5E4
:1005FD003EF542F541F540F53FF545F53B753C03BC
:10060D000206FE753B00753C03AE72AF73E4FCFD54
:10061D007BEB7A0CF9F8D312086E4002802EAE7285
:10062D00AF73E4FCFD7B567A14F9F8D312086E40D3
:10063D0034E542452AFFE5414529FEE5404528FDC3
:10064D00E53F45278F428E418D40F53FAF2AAE29BC
:10065D00AD28AC2778011208978F2A8E298D288C0A
:10066D0027053E8036AE72AF73E4FCFD7BE37A2343
:10067D00F9F8D312086E4020752A017529007528E6
:10068D0000752700754200754100754000753F00EB
:10069D00753E004345018003434502E53E641470F9
:1006AD0050AB59AF42AE41AD40AC3FAA59EA25E03F
:1006BD0025E0244DF81208B6AF590559745A2FF894
:1006CD00A645E559D394024003755900E559B52562
:1006DD00028B59752A01752900752800752700753B
:1006ED004200754100754000753F00753E0175452E
:0106FD0000FC
:0B06FE00D0D0D082D083D0F0D0E0320A
:03000B00020C2EB6
:100C2E00C0E0C0D0E52B7004C28C8021309410C27D
:100C3E0094E539552B6004D2938012C293800ED264
:100C4E0094E52BC313F52BE52B7002C28CC28DD00D
:040C5E00D0D0E032E0
:03001B00020B9C39
:0B0B9C00C0E0C083C082C0D075D01044
:100BA700C28FE526600F7521007522007523007539
:100BB7002400752600E5332522F522E5323521F597
:100BC7002190070993FDE5352524F524E5343523E0
:100BD700F523FF932DFDE433C313FCED13FDF5EA75
:090BE700D0D0D082D083D0E032DE
:03002B00020BF0D5
:100BF000C0E0C2CFE54460021544E52E452D6008F3
:100C0000E52E152E7002152DE53660021536E546E7
:100C100060021546E53845376011E5381538700231
:0E0C20001537E53845377003752F01D0E032E7
:1009C40002004EE493A3F8E493A34003F68001F2FB
:1009D40008DFF48029E493A3F85407240CC8C33334
:1009E400C4540F4420C8834004F456800146F6DF03
:1009F400E4800B010204081020408090000AE47E89
:100A0400019360BCA3FF543F30E509541FFEE493F7
:100A1400A360010ECF54C025E060A840B8E493A3BE
:100A2400FAE493A3F8E493A3C8C582C8CAC583CAE9
:100A3400F0A3C8C582C8CAC583CADFE9DEE780BEA1
:01000A0000F5
:100D1500E4FFFE75FFA00FBF00010EEF64144E70D7
:040D2500F575EF026F
:010D290022A7
:100CCB0075D84053D9BF75D90275DA2175DB4275DA
:090CDB00DC4275EA8075EC802210
:100C9100758840758922758E05758A80758C807579
:0F0CA100C80475CA0675CBF875CC0675CDF82258
:0A001E0075A140E4F5F875A27922FF
:10002E00E4FFFE759B850FBF00010EEF64234E703B
:0A003E00F5539BCF759F75759D81EA
:010048002295
:040D480075D101223E
:100CE40075F1FE75F27B75A48E75A55875D4717572
:090CF400D58475E12075E243226C
:040D4C0075B2C72293
:0A0D3E0075E60475F60475A82A2274
:100CB000120D15120CCB120C9112001E12002E12E6
:0B0CC0000D48120CE4120D4C020D3E1A
:10070900808386898C8F9295989B9EA1A4A7A9AC7A
:10071900AFB2B5B7BABDBFC2C4C7C9CCCED0D3D5A5
:10072900D7D9DBDDDFE1E3E5E6E8EAEBECEEEFF074
:10073900F2F3F4F5F6F7F7F8F9F9FAFAFAFBFBFB35
:10074900FBFBFBFBFAFAFAF9F9F8F7F7F6F5F4F31C
:10075900F2F0EFEEECEBEAE8E6E5E3E1DFDDDBD929
:10076900D7D5D3D0CECCC9C7C4C2BFBDBAB7B5B22D
:10077900AFACA9A7A4A19E9B9895928F8C898683DB
:10078900807D7A7774716E6B6865625F5C595754C6
:10079900514E4B494643413E3C39373432302D2B7B
:1007A90029272523211F1D1B1A181615141211108C
:1007B9000E0D0C0B0A0909080707060606050505AB
:1007C9000505050506060607070809090A0B0C0DA4
:1007D9000E101112141516181A1B1D1F2123252777
:1007E900292B2D30323437393C3E414346494B4E53
:1007F900515457595C5F6265686B6E7174777A7D85
:10080900BB010689828A83E0225002E722BBFE02ED
:09081900E32289828A83E4932220
:10082200BB010CE58229F582E5833AF583E022508B
:1008320006E92582F8E622BBFE06E92582F8E222D5
:0D084200E58229F582E5833AF583E49322EF
:10084F00BB010689828A83F0225002F722BBFE0188
:02085F00F32282
:0D086100EF4BFFEE4AFEED49FDEC48FC2296
:10086E00EB9FF5F0EA9E42F0E99D42F0EC6480C801
:06087E0064809845F022A1
:10088400E8600FECC313FCED13FDEE13FEEF13FF52
:03089400D8F12276
:10089700E8600FEFC333FFEE33FEED33FDEC33FCBF
:0308A700D8F12263
:0C08AA00E6FC08E6FD08E6FE08E6FF227A
:0C08B600ECF608EDF608EEF608EFF6226E
:1008C200D083D082F8E4937012740193700DA3A3C5
:1008D20093F8740193F5828883E4737402936860D9
:0608E200EFA3A3A380DFD9
:00000001FF
