:03000000020C21CE
:100C2100787FE4F6D8FD750B00750C007581B67EF2
:060C3100008ED9020C72D6
:100AE3004C54582F564D5C464731323341343536DA
:100AF30042373839432A3023440007750775077591
:100B03000775083D083D083D083D091D091D091DE0
:100B1300091D0A110A110A110A110CEF0E4B0FCD10
:100B230011790CEF0E4B0FCD11790CEF0E4B0FCD4E
:100B330011790CEF0E4B0FCD11790B021302230227
:100B430022020A0212022002100208020B821382FE
:100B53002382438209821182218241820A82128284
:100B63002282428208821082208240820000040294
:100B7300082010012D01080A0400020600020808DB
:050B8300040108040854
:10004E0075D900C2AF120ECA754C19D2AF754600E3
:10005E00C295D294C293C290D282D297D292D286B5
:10006E00120003900B77E493FF7E008E358F36D20D
:10007E0097D296D291D29075450153DBFE788712B6
:10008E0006B200000001788D1206B2000000007565
:10009E004700754E00753B00753C00C221753D0052
:1000AE00753E00753F007540007538007539007556
:1000BE004D00754100754200754300753A00754F4D
:1000CE000075500078A576007533017883764078F8
:1000DE00827600C223752D00D220E53370FC78A203
:1000EE00A6EF7F7E120F2078A2E6FF120E41120FAE
:1000FE002078A2E6FF120EE9120F207F0D120F20BC
:10010E007D047F02120B887D107F01120B88D29026
:10011E0043DC40A291B392227FFF12080E75580164
:10012E007F02120F62E558700302004E7F03120821
:10013E000E752500A291E433FF78A4A607A222E44F
:10014E0033FF78A4E6FEEF6E603E2086057F201218
:10015E00080E78A4E6FFEF24FF922278A4E6FFEFC4
:10016E00601DC2967D007F40120D88753D00753E64
:10017E0000753F0075400043DC4053DBFE80097D77
:10018E00017F40120D88D29678A47600120F42EFAE
:10019E006006752540754196E541700C7883E6FF43
:1001AE00EF64406003432540E53E453D60067542E1
:1001BE0006754372E53A6008753A0043DC40D29604
:1001CE00E52520E603020133E52D702FE541702B66
:1001DE00C2217883E6FFEF6440601CE53E453D702A
:1001EE000343DC40C2237883E6FFEF4480FF78A20E
:1001FE00A6077F0212080E78837640120CB78F2C5A
:10020E008E2B8D2A8C29AF2CAE2BAD2AAC29120A3F
:10021E00158B268A278928AB26AA27A9287582013D
:10022E00758300120605FF78A4A607AB26AA27A998
:10023E00281205ECFFEF30E11B202104D22180169D
:10024E00AB26AA27A9281205ECFFEF54FDFFEF12EB
:10025E0006328002C22178A4E6FFEF644060457842
:10026E00A4E6FFEFB43B0E78A4E6FF78A2A60778CB
:10027E00837640803175419678A4E6FFEF601E7854
:10028E00A4E6FF7883E6FEEE6F601278A4E6FF78B0
:10029E0083A60778A4E6FF78A2A60780097F01123D
:1002AE00080E8002C22178A2E6FFEF30E70C753D02
:1002BE0000753E00753F0075400078A2E6FFEFC363
:1002CE009430400A78A2E6FFEFD39439402578A205
:1002DE00E6FFEFC39441400A78A2E6FFEFD39444C1
:1002EE00401178A2E6FFEF642A600878A2E6FFEFDD
:1002FE00B4230678817601800478817600AB26AA35
:10030E0027A9281205ECFFEF5402FF78A3A607AB2E
:10031E0026AA27A9281205ECFFEF30E0177881E610
:10032E00FFEF701078807601753D00753E00753FC9
:10033E00007540007881E6FFEF700302041DAB26C6
:10034E00AA27A9281205ECFFEF30E20675420675C2
:10035E004372AB26AA27A9281205ECFFEF30E0075F
:10036E007D017F40120D88E54630E67078A3E6FFEA
:10037E00EF700302013353DCBFC296AB26AA27A946
:10038E0028758202758300120605FFEF3395E0FE95
:10039E00EF25E0FFEE33FE74FD2FF582740A3EF575
:1003AE0083E493F53D740193F53EAB26AA27A92865
:1003BE00758202758300120605FFEF3395E0FEEF9E
:1003CE0025E0FFEE33FE741D2FF582740B3EF58390
:1003DE00E493F53F740193F54002013378A2E6FFF2
:1003EE00EFC39430400A78A2E6FFEFD39444401551
:1003FE0078A2E6FFEF642A600C78A2E6FFEF642392
:10040E00600302013378A2E6FF12080E0201337870
:10041E00A2E6FFEF1206DB04442F044446044447D1
:10042E0004444C04444D04445404445604445804B7
:10043E00445C0000013378A2E6FF12080E0201337D
:03044E0002013375
:010451002288
:040B88008F598D5A9A
:100B8C0078A67600855A5B53DCBF754F007550F024
:100B9C00754B01E54B70FC7F0012080E53DCBF75E2
:100BAC004F00755064754B01E54B70FC43DC40E520
:100BBC0059555BFFEF6008754F007550F080067556
:100BCC004F00755050754B01E55BC313F55B7F000F
:100BDC0012080EE54B70FC120F4278A6A60778A6F9
:100BEC00E6FFA291B3E433FEEF4EFF78A6A607789A
:100BFC00A6E6FFEF7004E55B709D78A6E6FFEF704C
:100C0C001053DCBF754F007550F0754B01E54B7000
:040C1C00FC43DC4079
:010C200022B1
:100D88008F598D5AE5591206DB0DB7010DC0040DB8
:100D9800C0200DA14000000DC0E55A6007D295E5BE
:100DA80059424622C295E559F4FFEF52462222E500
:090DB8005A6003D29022C290227D
:0A0F62008F5D855D4DE54D70FC22AA
:0F0F4200C227E53265546002D227A227E433FFAD
:010F5100227D
:100CB70078A61206B2FFFFFFFFE5326554605BAF0F
:100CC70032EF25E025E02496F812068DEF54FFFF5A
:100CD700EE54FFFEED54FFFDEC5400FCC004C005CC
:100CE700C006C007AF3274552FF8E6FFE4FCFDFEDF
:100CF700781812067AA804A905AA06AB07D007D068
:100D070006D005D00412064478A61206A60532AF0F
:0F0D170032EFD39402400375320078A612068D96
:010D260022AA
:080A15008F5C8E5B8D5A8C5939
:100A1D0075600078857640AF5CEF540FFF7884A643
:100A2D0007AF5CAE5BAD5AAC5978041206678E5DAC
:100A3D008F5EE55E6402455D70077885763B020A40
:100A4D00DCE55E64FF7004E55D64FF7003020ADCA3
:100A5D00755F00AF5FEF25E0243DF582E4340BF5C3
:100A6D0083E493FE740193FFE55EB50714E55DB570
:100A7D00060FAF5FEF900AE393FF7885A607855FBA
:100A8D00607885E6FFEFB4401B055FAF5FEF25E0B3
:100A9D00243DF582E4340BF583E493FE740193FF5A
:100AAD00EF4E70AF7885E6FFEFB4401A78911206DD
:100ABD008DEF4400FFEE4410FEED4400FDEC4400CC
:100ACD00FC78911206A6E56024F7FF7886A6077BD1
:050ADD00007A0079849D
:010AE20022F1
:040E64008E5D8F5EB2
:100E6800E55E455D6012A2AF9227C2AF855D5285EF
:0D0E78005E53C225A22792AFA225E433FFEE
:010E8500224A
:10000E00A2AF9227C2AF755200755300C225A22728
:02001E0092AF9F
:0100200022BD
:040E86008E5D8F5E90
:100E8A00E55E455D6012A2AF9227C2AF855D4885D7
:0D0E9A005E49C224A22792AFA224E433FFD8
:010EA7002228
:03004B000204525A
:0D045200C0E0C0F0C083C082C0D075D010E3
:10045F0020D8030205E1C2D8AFF97E008E638F6406
:10046F00AFFA7E00EF7F00FEEF4264EE4263C3E51A
:10047F0064953CE563953B5017C374FF953CFF743F
:10048F00FF953BFEEF2564F566EE3563F565800D50
:10049F00C3E564953CF566E563953BF565AE65AFE1
:1004AF0066E4FCFD7B437A0579007800D312065190
:1004BF0040030205E185633B85643C788BE6FE08CB
:1004CF00E6FFEF4E702278871206B200000001752A
:1004DF004700788D1206B200000000754E00788B31
:1004EF0076000876030205E1788B7600087603AE76
:1004FF0065AF66E4FCFD7BEB7A0C79007800D312D4
:10050F0006514013788712068D780112067A788784
:10051F001206A60547806CAE65AF66E4FCFD7B5600
:10052F007A1479007800D31206514025788D12067F
:10053F008D7887120699120644788D1206A6788751
:10054F0012068D780112067A78871206A605478063
:10055F0032AE65AF66E4FCFD7BE37A237900780069
:10056F00D3120651401A78871206B20000000178A4
:10057F008D1206B200000000754700434E01800344
:10058F00434E02E54764147049855462788D120614
:10059F008DAB54EB25E025E02496F81206A6AF5458
:1005AF00055474552FF8A64EE554D39402400375A5
:1005BF005400E554B5320385625478871206B200B1
:1005CF00000001788D1206B200000000754701751A
:0205DF004E00CC
:0B05E100D0D0D082D083D0F0D0E03228
:03000B00020F8859
:030F8800C28C32E6
:03002B00020701C8
:0B070100C0E0C083C082C0D075D010E3
:10070C00C2CFE533600F752E00752F007530007564
:10071C003100753300E53E252FF52FE53D352EF5DF
:10072C002EE52EFF7E008F67AF67EF90091593FFC4
:10073C007E008E688F69E5402531F531E53F353017
:10074C00F530E530FF7E008F67AF67EF90091593AA
:10075C00FF7E00EF2569F569EE3568F568E568C33D
:10076C0013F568E56913F5698569EA154CAF4CEF2B
:10077C006003020805754C19E54D6002154DE54105
:10078C0060021541E53945386013E53915397002B9
:10079C00153814FFAE38EF4E6003753700E5504541
:1007AC004F6013E55015507002154F14FFAE4FEF0C
:1007BC004E7003754B00E54345426011E54315430C
:1007CC0070021542E54345427003753A01E5534505
:1007DC00526010E553155370021552E55345527093
:1007EC0002D225E54945486010E5491549700215C6
:0907FC0048E54945487002D22489
:09080500D0D0D082D083D0E032C3
:100C370002004EE493A3F8E493A34003F68001F285
:100C470008DFF48029E493A3F85407240CC8C333BE
:100C5700C4540F4420C8834004F456800146F6DF8D
:100C6700E4800B0102040810204080900009E47E14
:100C7700019360BCA3FF543F30E509541FFEE49382
:100C8700A360010ECF54C025E060A840B8E493A349
:100C9700FAE493A3F8E493A3C8C582C8CAC583CA74
:100CA700F0A3C8C582C8CAC583CADFE9DEE780BE2C
:0100090000F6
:0600030012000AD22622C1
:01000A0022D3
:100F20008F6020260480FB80F9C226856099AF601F
:010F3000229E
:020E41008F59C7
:100E4300E559C4540FFFEF540FFFEF2430F55AD385
:100E5300E55A648094B940067407255AF55AAF5A87
:010E6300226C
:020EE9008F591F
:100EEB00E559540FFFEF2430F55AD3E55A6480943B
:0B0EFB00B940067407255AF55AAF5A9B
:010F060022C8
:100E1B008B5D8A5E895FAB5DAA5EA95F1205ECFFF5
:100E2B00EF6012785DE475F0011206CB1205ECFF52
:060E3B00120F2080E122ED
:03002300020F5277
:0F0F5200309904D226C29930980585996AC298C1
:010F6100325D
:100DF100755900755A0075FFA0755900755A00C3E1
:100E0100E55A9414E55964809480500A055AE55ACC
:090E11007002055980E975EF003B
:010E1A0022B5
:100F070075D84053D9BF75D90275DA2175DB42759B
:090F1700DC4275EA8075EC8022D1
:100EA800758840758922758E1C758A80758C807549
:100EB8008D9675C80475CA0075CBFC75CC0075CDC8
:020EC800FC220A
:040026007598102297
:0A0F6C0075A14075F80075A2792206
:100DC100755900755A00759B85755900755A00C390
:100DD100E55A9423E55964809480500A055AE55AEE
:0F0DE1007002055980E9539BCF759F75759D81F1
:010DF00022E0
:040F800075D11022F5
:10002E0075F1FE75F27B75A49A75A56975D4417547
:0C003E00D58443D43075E12175E24322E3
:040F840075B2C72259
:0A0F760075E60475F60475A8302234
:100ECA00120DF1120F07120EA8120026120F6C1241
:0F0EDA000DC1120F8012002E120F84120F7622FC
:10091500808386898C8F9295989B9EA1A4A7A9AC6C
:10092500AFB2B5B7BABDBFC2C4C7C9CCCED0D3D597
:10093500D7D9DBDDDFE1E3E5E6E8EAEBECEEEFF066
:10094500F2F3F4F5F6F7F7F8F9F9FAFAFAFBFBFB27
:10095500FBFBFBFBFAFAFAF9F9F8F7F7F6F5F4F30E
:10096500F2F0EFEEECEBEAE8E6E5E3E1DFDDDBD91B
:10097500D7D5D3D0CECCC9C7C4C2BFBDBAB7B5B21F
:10098500AFACA9A7A4A19E9B9895928F8C898683CD
:10099500807D7A7774716E6B6865625F5C595754B8
:1009A500514E4B494643413E3C39373432302D2B6D
:1009B50029272523211F1D1B1A181615141211107E
:1009C5000E0D0C0B0A09090807070606060505059D
:1009D5000505050506060607070809090A0B0C0D96
:1009E5000E101112141516181A1B1D1F2123252769
:1009F500292B2D30323437393C3E414346494B4E45
:100A0500515457595C5F6265686B6E7174777A7D76
:100F31002352433930305F57524476302E30250DDD
:010F410000AF
:02080E008F5CFD
:10081000E55CB4FF167F007E00120E64750800755B
:10082000090012000A750A007FFF22E55CB50A0381
:10083000755C01E5081206DB08420008560A000054
:1008400008427BFF7A0F7931120E1B7F14120F6260
:1008500075080A020912E55C1206DB08930108C458
:100860000208E70300000868855C0A7FC87E001262
:100870000E647FE87E03120E867B007A0079A775EE
:100880006170AD0A120D277B007A0079A7120E1B4A
:100890000209127F007E00120E64EF60757FC87E31
:1008A00000120E647FE87E03120E867B007A0079C8
:1008B000A7756168AD0A120D277B007A0079A7122F
:1008C0000E1B804EE50A604A7B007A0079A77561AD
:1008D00072AD0A120D277B007A0079A7120E1B75E4
:1008E0000A0012000E802BE50A60277F007E0012AE
:1008F0000E86EF601D7B007A0079A7756152AD0A04
:10090000120D277B007A0079A7120E1B750A0012C0
:04091000000E7FFF57
:0109140022C0
:100D27008B5D8A5E895F8D60785DE475F0011206E0
:100D3700CB747E120632785DE475F0011206CBE5BE
:100D470060120632785DE475F0011206CBE5611298
:100D57000632E5606561FFEF4480FF785DE475F07A
:100D6700011206CBEF120632785DE475F001120628
:100D7700CB740D120632AB5DAA5EA95FE412063290
:010D87002249
:1005EC00BB010689828A83E0225002E722BBFE020D
:0905FC00E32289828A83E4932240
:10060500BB010CE58229F582E5833AF583E02250AA
:1006150006E92582F8E622BBFE06E92582F8E222F4
:0D062500E58229F582E5833AF583E493220E
:10063200BB010689828A83F0225002F722BBFE01A7
:02064200F322A1
:0D064400EF4BFFEE4AFEED49FDEC48FC22B5
:10065100EB9FF5F0EA9E42F0E99D42F0EC6480C820
:0606610064809845F022C0
:10066700E8600FECC313FCED13FDEE13FEEF13FF71
:03067700D8F12295
:10067A00E8600FEFC333FFEE33FEED33FDEC33FCDE
:03068A00D8F12282
:0C068D00E6FC08E6FD08E6FE08E6FF2299
:0D069900E6FB08E6F908E6FA08E6CBF822D1
:0C06A600ECF608EDF608EEF608EFF62280
:1006B200D083D082E493F608740193F6087402930F
:0906C200F608740393F674047346
:1006CB00FAE6FB0808E6F925F0F618E6CA3AF62230
:1006DB00D083D082F8E4937012740193700DA3A3AE
:1006EB0093F8740193F5828883E4737402936860C2
:0606FB00EFA3A3A380DFC2
:00000001FF
