:03000000020D05E9
:100D0500787FE4F6D8FD750B00750C007581BA7E09
:060D1500008ED9020D560C
:100B7900706F6E6B6D6C6A7C21616263716465660E
:100B890072676869732B602474004C54582F564D52
:100B99005C46473132334134353642373839432A96
:100BA900302344000775077507750775083D083D2B
:100BB900083D083D091D091D091D091D0A110A11D4
:100BC9000A110A110CEF0E4B0FCD11790CEF0E4BD8
:100BD9000FCD11790CEF0E4B0FCD11790CEF0E4B98
:100BE9000FCD11790B421342234222420A4212428B
:100BF9002042104208420BC213C223C243C209C297
:100C090011C221C241C20AC212C222C242C208C2D0
:100C190010C220C240C200000B02130223022202AA
:100C29000A0212022002100208020B821382238296
:100C3900438209821182218241820A82128222829E
:100C49004282088210822082408200000402082029
:100C590010012D01080A0400020600020808040117
:030C690008040874
:10004E0075D900C2AF120FAE754C19D2AF754600FE
:10005E00C295D294C293C290D282D297D292D286B5
:10006E00120003900C5BE493FF7E008E358F36D228
:10007E0097D296D291D29075450153DBFE788712B6
:10008E00081500000001788D12081500000000759B
:10009E004700754E00753B00753C00C221753D0052
:1000AE00753E00753F007540007538007539007556
:1000BE004D00754100754200754300753A00754F4D
:1000CE000075500078A976007533017883764078F4
:1000DE00827600C223752D00D220E53370FC78A6FF
:1000EE00A6EF7F7E12100478A6E6FF120F251210DF
:1000FE000478A6E6FF120FCD1210047F0D12100425
:10010E007D047F02120C6C7D107F01120C6CD2905C
:10011E0043DC40A291B392227FFF120971755901FF
:10012E007F02121046E559700302004E7F0312093A
:10013E0071752500A291E433FF78A8A607A222E4E8
:10014E0033FF78A8E6FEEF6E603678A8E6FFEF2460
:10015E00FF922278A8E6FFEF601DC2967D007F40D9
:10016E00120E6C753D00753E00753F0075400043E4
:10017E00DC4053DBFE80097D017F40120E6CD2966F
:10018E00121026EF600675254075414BE541700C47
:10019E007883E6FFEF64406003432540E53E453D2E
:1001AE006006754206754372E53A601678A8E6FF5A
:1001BE00EF60077D007F40120E6C753A0043DC4005
:1001CE00D29678A87600E52520E603020133E52DC8
:1001DE00702EE541702AC2217883E6FFEF644060FD
:1001EE001BE53E453D700343DC40C22378A67600F6
:1001FE007883E6FFEF4480FF78A6A60778837640E3
:10020E00120D9B8F2C8E2B8D2A8C29AF2CAE2BADE5
:10021E002AAC2912061D8B268A278928AB26AA27E7
:10022E00A928758201758300120768FF78A8A607B2
:10023E00AB26AA27A92812074FFFEF30E11B20217A
:10024E0004D2218016AB26AA27A92812074FFFEF4A
:10025E0054FDFFEF1207958002C22178A8E6FFEF4A
:10026E006440604578A8E6FFEFB43B0E78A8E6FF41
:10027E0078A6A60778837640803175414B78A8E63C
:10028E00FFEF601E78A8E6FF7883E6FEEE6F601241
:10029E0078A8E6FF7883A60778A8E6FF78A6A607D3
:1002AE0080097F011209718002C22178A6E6FFEF54
:1002BE0030E70C753D00753E00753F0075400078C7
:1002CE00A6E6FFEFC39430400A78A6E6FFEFD3947C
:1002DE0039402578A6E6FFEFC39441400A78A6E69A
:1002EE00FFEFD39444401178A6E6FFEF642A60082E
:1002FE0078A6E6FFEFB42306788176018004788134
:10030E007600AB26AA27A92812074FFFEF5402FF4B
:10031E0078A7A607AB26AA27A92812074FFFEF300A
:10032E00E0177881E6FFEF701078807601753D005A
:10033E00753E00753F007540007881E6FFEF700353
:10034E00020422AB26AA27A92812074FFFEF30E29C
:10035E0006754206754372AB26AA27A92812074FC7
:10036E00FFEF30E0077D017F40120E6CE54630E670
:10037E007078A7E6FFEF700302013353DCBFC2961D
:10038E00AB26AA27A928758202758300120768FF7B
:10039E00EF3395E0FEEF25E0FFEE33FE74AD2FF563
:1003AE0082740B3EF583E493F53D740193F53EABF9
:1003BE0026AA27A928758202758300120768FFEF07
:1003CE003395E0FEEF25E0FFEE33FE74CD2FF58280
:1003DE00740B3EF583E493F53F740193F5400201EF
:1003EE003378A6E6FFEFC39430400A78A6E6FFEF17
:1003FE00D39444401578A6E6FFEF642A600C78A6E5
:10040E00E6FFEF6423600302013378A6E6FF1209CC
:10041E007102013378A6E6FFEFD39440401078A620
:10042E00E6FFEFC3947A500678A77601800878A687
:10043E00E6FF78A7A60778A7E6FFEF12083E04624C
:10044E000104622104622404622B04622F04627C84
:10045E000000046C78A6E6FF12097102013378A63B
:10046E00E6FFEF20E7030201337F0212097102015A
:04047E003302013311
:010482002257
:040C6C008F5A8D5BB3
:100C700078AA7600855B5C53DCBF754F007550F039
:100C8000754B01E54B70FC7F0012097153DCBF7599
:100C90004F00755064754B01E54B70FC43DC40E53B
:100CA0005A555CFFEF6008754F007550F08006756F
:100CB0004F00755050754B01E55CC313F55C7F0028
:100CC000120971E54B70FC12102678AAA60778AAC3
:100CD000E6FFA291B3E433FEEF4EFF78AAA60778B1
:100CE000AAE6FFEF7004E55C709D78AAE6FFEF705E
:100CF0001053DCBF754F007550F0754B01E54B701C
:040D0000FC43DC4094
:010D040022CC
:100E6C008F5A8D5BE55A12083E0E9B010EA4040EA0
:100E7C00A4200E854000000EA4E55B6007D295E52A
:100E8C005A424622C295E55AF4FFEF52462222E519
:090E9C005B6003D29022C2902297
:0A1046008F5E855E4DE54D70FC22C3
:0F102600C227E53265546002D227A227E433FFC8
:011035002298
:100D9B0078AA120815FFFFFFFFE5326554605BAFC1
:100DAB0032EF25E025E02496F81207F0EF54FFFF11
:100DBB00EE54FFFEED54FFFDEC5400FCC004C005E7
:100DCB00C006C007AF3274552FF8E6FFE4FCFDFEFA
:100DDB0078181207DDA804A905AA06AB07D007D01F
:100DEB0006D005D0041207A778AA1208090532AF5E
:0F0DFB0032EFD39403400375320078AA1207F049
:010E0A0022C5
:08061D008F5D8E5C8D5B8C5A31
:1006250075610078857640AF5DEF540FFF7884A63D
:1006350007AF5DAE5CAD5BAC5A78041207CA8E5E3F
:100645008F5FE55F6402455E70077885763B02073C
:1006550048E55F64FF7004E55E64FF7003020748C8
:100665007560007884E6FFEF30E354AF60EF25E076
:100675002421F582E4340CF583E493FE740193FFA1
:10068500E55FB50714E55EB5060FAF60EF900B7932
:1006950093FF7885A6078560617885E6FFEF64405E
:1006A500706E0560AF60EF25E024EDF582E4340B54
:1006B500F583E493FE740193FFEF4E70AE8051AF66
:1006C50060EF25E02421F582E4340CF583E493FE04
:1006D500740193FFE55FB50714E55EB5060FAF60DE
:1006E500EF900B9393FF7885A6078560617885E683
:1006F500FFEFB4401B0560AF60EF25E02421F582D4
:10070500E4340CF583E493FE740193FFEF4E70AF70
:100715007885E6FFEFB4401A78911207F0EF4400B0
:10072500FFEE4410FEED4400FDEC4400FC78911210
:1007350008097884E6FFEF20E309E56124F7FF78EF
:0907450086A6077B007A00798486
:01074E002288
:040F48008E5E8F5FCB
:100F4C00E55F455E6012A2AF9227C2AF855E528507
:0D0F5C005F53C225A22792AFA225E433FF08
:010F69002265
:10000E00A2AF9227C2AF755200755300C225A22728
:02001E0092AF9F
:0100200022BD
:040F6A008E5E8F5FA9
:100F6E00E55F455E6012A2AF9227C2AF855E4885EF
:0D0F7E005F49C224A22792AFA224E433FFF2
:010F8B002243
:03004B0002048329
:0D048300C0E0C0F0C083C082C0D075D010B2
:1004900020D803020612C2D8AFF97E008E648F65A1
:1004A000AFFA7E00EF7F00FEEF4265EE4264C3E5E7
:1004B00065953CE564953B5017C374FF953CFF740C
:1004C000FF953BFEEF2565F567EE3564F566800D1B
:1004D000C3E565953CF567E564953BF566AE66AFAB
:1004E00067E4FCFD7B437A0579007800D31207B4FA
:1004F000400302061285643B85653C788BE6FE0866
:10050000E6FFEF4E70227887120815000000017593
:100510004700788D12081500000000754E00788B9A
:100520007600087603020612788B7600087603AE12
:1005300066AF67E4FCFD7BEB7A0C79007800D312A0
:1005400007B4401378871207F078011207DD788727
:100550001208090547806CAE66AF67E4FCFD7B5668
:100560007A1479007800D31207B44025788D1207E9
:10057000F078871207FC1207A7788D120809788790
:100580001207F078011207DD788712080905478005
:1005900032AE66AF67E4FCFD7BE37A237900780036
:1005A000D31207B4401A78871208150000000178AA
:1005B0008D12081500000000754700434E018003AE
:1005C000434E02E54764147049855463788D1207E1
:1005D000F0AB54EB25E025E02496F8120809AF545F
:1005E000055474552FF8A64EE554D3940340037573
:1005F0005400E554B532038563547887120815001A
:10060000000001788D120815000000007547017583
:020610004E009A
:0B061200D0D0D082D083D0F0D0E032F6
:03000B0002106C74
:03106C00C28C3201
:03002B0002086464
:0B086400C0E0C083C082C0D075D0107F
:10086F00C2CFE533600F752E00752F007530007500
:10087F003100753300E53E252FF52FE53D352EF57B
:10088F002EE52EFF7E008F68AF68EF900A7993FFF9
:10089F007E008E698F6AE5402531F531E53F3530B1
:1008AF00F530E530FF7E008F68AF68EF900A7993DF
:1008BF00FF7E00EF256AF56AEE3569F569E569C3D4
:1008CF0013F569E56A13F56A856AEA154CAF4CEFC3
:1008DF006003020968754C19E54D6002154DE5413D
:1008EF0060021541E53945386013E5391539700255
:1008FF00153814FFAE38EF4E6003753700E55045DD
:10090F004F6013E55015507002154F14FFAE4FEFA7
:10091F004E7003754B00E54345426011E5431543A7
:10092F0070021542E54345427003753A01E55345A0
:10093F00526010E553155370021552E5534552702E
:10094F0002D225E54945486010E549154970021561
:09095F0048E54945487002D22424
:09096800D0D0D082D083D0E0325F
:100D1B0002004EE493A3F8E493A34003F68001F2A0
:100D2B0008DFF48029E493A3F85407240CC8C333D9
:100D3B00C4540F4420C8834004F456800146F6DFA8
:100D4B00E4800B0102040810204080900009E47E2F
:100D5B00019360BCA3FF543F30E509541FFEE4939D
:100D6B00A360010ECF54C025E060A840B8E493A364
:100D7B00FAE493A3F8E493A3C8C582C8CAC583CA8F
:100D8B00F0A3C8C582C8CAC583CADFE9DEE780BE47
:0100090000F6
:0600030012000AD22622C1
:01000A0022D3
:101004008F6120260480FB80F9C226856199AF6137
:0110140022B9
:020F25008F5AE1
:100F2700E55AC4540FFFEF540FFFEF2430F55BD39E
:100F3700E55B648094B940067407255BF55BAF5B9E
:010F47002287
:020FCD008F5A39
:100FCF00E55A540FFFEF2430F55BD3E55B64809453
:0B0FDF00B940067407255BF55BAF5BB3
:010FEA0022E4
:100EFF008B5E8A5F8960AB5EAA5FA96012074FFFA6
:100F0F00EF6012785EE475F00112082E12074FFFA2
:060F1F0012100480E12223
:0300230002103692
:0F103600309904D226C29930980585996BC298DB
:011045003278
:100ED500755A00755B0075FFA0755A00755B00C3F8
:100EE500E55B9414E55A64809480500A055BE55BE4
:090EF5007002055A80E975EF0056
:010EFE0022D1
:100FEB0075D84053D9BF75D90275DA2175DB4275B7
:090FFB00DC4275EA8075EC8022ED
:100F8C00758840758922758E1C758A80758C807564
:100F9C008D9675C80475CA0075CBFC75CC0075CDE3
:020FAC00FC2225
:040026007598102297
:0A10500075A14075F80075A2792221
:100EA500755A00755B00759B85755A00755B00C3A7
:100EB500E55B9423E55A64809480500A055BE55B05
:0F0EC5007002055A80E9539BCF759F75759D810B
:010ED40022FB
:0410640075D1102210
:10002E0075F1FE75F27B75A49A75A56975D4417547
:0C003E00D58443D43075E12175E24322E3
:0410680075B2C72274
:0A105A0075E60475F60475A830224F
:100FAE00120ED5120FEB120F8C12002612105012C9
:0F0FBE000EA512106412002E12106812105A2283
:100A7900808386898C8F9295989B9EA1A4A7A9AC07
:100A8900AFB2B5B7BABDBFC2C4C7C9CCCED0D3D532
:100A9900D7D9DBDDDFE1E3E5E6E8EAEBECEEEFF001
:100AA900F2F3F4F5F6F7F7F8F9F9FAFAFAFBFBFBC2
:100AB900FBFBFBFBFAFAFAF9F9F8F7F7F6F5F4F3A9
:100AC900F2F0EFEEECEBEAE8E6E5E3E1DFDDDBD9B6
:100AD900D7D5D3D0CECCC9C7C4C2BFBDBAB7B5B2BA
:100AE900AFACA9A7A4A19E9B9895928F8C89868368
:100AF900807D7A7774716E6B6865625F5C59575453
:100B0900514E4B494643413E3C39373432302D2B07
:100B190029272523211F1D1B1A1816151412111018
:100B29000E0D0C0B0A090908070706060605050537
:100B39000505050506060607070809090A0B0C0D30
:100B49000E101112141516181A1B1D1F2123252703
:100B5900292B2D30323437393C3E414346494B4EDF
:100B6900515457595C5F6265686B6E7174777A7D11
:101015002352433930305F57524476302E31250DF7
:0110250000CA
:020971008F5D98
:10097300E55D64FF70247F007E00120F4875080A4E
:1009830075090012000A750A007BFF7A10791512A7
:100993000EFF7F141210467FFF22E55DB50A037533
:1009A3005D01E50812083E09B40009BA0A0000090E
:1009B300B475080A020A76E55D12083E09F7010AD2
:1009C30028020A4B03000009CC855D0A7FC87E001C
:1009D300120F487FE87E03120F6A7B007A0079AB1F
:1009E300756270AD0A120E0B7B007A0079AB120EA2
:1009F300FF020A767F007E00120F48EF60757FC802
:100A03007E00120F487FE87E03120F6A7B007A0094
:100A130079AB756268AD0A120E0B7B007A0079AB75
:100A2300120EFF804EE50A604A7B007A0079AB75AF
:100A33006272AD0A120E0B7B007A0079AB120EFFC5
:100A4300750A0012000E802BE50A60277F007E00E6
:100A5300120F6AEF601D7B007A0079AB756252ADAD
:100A63000A120E0B7B007A0079AB120EFF750A0097
:050A730012000E7FFFE0
:010A7800225B
:100E0B008B5E8A5F89608D61785EE475F0011208F4
:100E1B002E747E120795785EE475F00112082EE5AC
:100E2B0061120795785EE475F00112082EE56212E7
:100E3B000795E5616562FFEF4480FF785EE475F02E
:100E4B000112082EEF120795785EE475F001120877
:100E5B002E740D120795AB5EAA5FA960E41207957D
:010E6B002264
:10074F00BB010689828A83E0225002E722BBFE02A8
:09075F00E32289828A83E49322DB
:10076800BB010CE58229F582E5833AF583E0225046
:1007780006E92582F8E622BBFE06E92582F8E22290
:0D078800E58229F582E5833AF583E49322AA
:10079500BB010689828A83F0225002F722BBFE0143
:0207A500F3223D
:0D07A700EF4BFFEE4AFEED49FDEC48FC2251
:1007B400EB9FF5F0EA9E42F0E99D42F0EC6480C8BC
:0607C40064809845F0225C
:1007CA00E8600FECC313FCED13FDEE13FEEF13FF0D
:0307DA00D8F12231
:1007DD00E8600FEFC333FFEE33FEED33FDEC33FC7A
:0307ED00D8F1221E
:0C07F000E6FC08E6FD08E6FE08E6FF2235
:0D07FC00E6FB08E6F908E6FA08E6CBF8226D
:0C080900ECF608EDF608EEF608EFF6221B
:10081500D083D082E493F608740193F608740293AA
:09082500F608740393F6740473E1
:10082E00FAE6FB0808E6F925F0F618E6CA3AF622CB
:10083E00D083D082F8E4937012740193700DA3A349
:10084E0093F8740193F5828883E47374029368605D
:06085E00EFA3A3A380DF5D
:00000001FF
